:4000000030303030303030303030303030303030303030303030303030303030303030303030303030303030303030303030303030303030303030303030303030303030c0
:400040003030303030303030303030303030303030303030303030303030303030303030303030303030303030303030303030303030303030303030303030303030303080
:400080003030303030303030303030303030303030303030303030303030303030303030303030303030303030303030303030303030303030303030303030303030303040
:4000c0003030303030303030303030303030303030303030303030303030303030303030303030303030303030303030303030303030303030303030303030303030303000
:400c000050017f30803b303080b0303081d5303081f8303030303030303030303030303030303030303030303030303030303030303030303030303030303030303030303a
:400c400053f551f42102a0226211016212016213016214016201f0620a026231cf622a08622b0351f421fd53f451f42104a00d5555007c0d7351f421fb53f451f53910a0a7
:400c80003d3911a0413912a0453914a0613913a05f3915a05d3916a05b3917a0593918a05f3919a05d391ba05b391aa059391ca057800650047c00887f7c0d557f5555013a
:400cc0007c0d738fef5555007c0d938fe77c0d937c0084a0097c0e117c0d738fd77c0e117c0d7355fb1e50057c00888fcc8fca8fc88fc68fc455fb1750067c00888fba8fd2
:400d0000b88fb68fb48fb255fb1c55fc9650057c00888fa53e593c59f3b00455595d70fe7a583c5807b00455570071017f3c5896a0173ff376583c5808b0045557013cf33b
:400d4000f3b01255f35d800d55560155595d55f35d5558007f3c5700a019570755f5f87c0d143ff579bff951583ff557f850087c00947f55560055570055595d55f35d55a7
:400d800058005155a00e5de1298060e15ddf290260df7f5de1217f60e15ddf21fd60df5d0129f060017f10515b6767676767672103535b515a64642c5ba0037a5b515b21f4
:400dc0007f2a5c535b515a676767676721075ca00b515c297f7c0d2d79bffb515b7c0d2d207f085d20535b5d21535a5d2c2101b006555c808006555c0080017c0da66220cb
:400e000000622100622c0f187e0850807c0d2d187e26fdf05f52fd5152b0045552f055f35d5553005ff6fc51f6a0323ef35354217f645c51542180a00655530080065f536e
:400e40005280015ba0105d0132536001797c0e997c0e6c8fef4101f07af68fce4101f07f3a003a003a003a003a003a003a007f40404040404040404040404040404040403b
:400e80004040404040404040404040404040404040404040404040404040404040404040404040404040404040404040404040404040404040404040404040404040404032
:400ec000404040404040404040404040404040404040407f303030303030303030303030303030303030303030303030303030303030303030303030303030303030303073
:400f000030303030303030303030303030303030303030303030303030303030303030303030303030303030303030303030303030303030303030303030303030303030b1
:400f40003030303030303030303030303030303030303030303030303030303030303030303030303030303030303030303030303030303030303030303030303030303071
:400f80003030303030303030303030303030303030303030303030303030303030303030303030303030303030303030303030303030303030303030303030303030303031
:400fc00030303030303030303030303030303030303030303030303030303030303030303030303030303030303030303030303030303030303030303030303030303030f1
:020000040010ea
:400000000000000000000000000000000000000000000000000000000000000000000000ffffffffffffffffffffffffffffffffffffffffffffffffffffffffffffffffe0
:020000040020da
:02000000700886
:00000001ff
